:100000000C943E000C94E00C0C945B000C945B0090
:100010000C945B000C945B000C945B000C945B00F4
:100020000C945B000C945B000C945B000C94360801
:100030000C945B000C945B000C945B000C945B00D4
:100040000C945B000C945B000C945B000C945B00C4
:100050000C94EC070C945B000C945B000C945B001C
:100060000C945B000C945B000C945B000C945B00A4
:100070000C945B000C945B000C945B0011241FBE7D
:10008000CFEFD4E0DEBFCDBF11E0A0E0B1E0E2E110
:10009000FDE202C005900D92AA36B107D9F713E030
:1000A000AAE6B1E001C01D92AC31B107E1F70E94B0
:1000B0005D000C9487160C9400000E94B00C0E9406
:1000C0008D070E941D0881E00E941D0C81E00E94A6
:1000D000230C0E9479080E94970D0E94D60A0E9464
:1000E0007E0A0E945E020E947F060E94D9060E943C
:1000F00054070E9478070E948007F3CF882399F065
:100100004091AA015091AB01EAE6F1E020E030E035
:1001100005C09191891749F02F5F3F4F241735078C
:10012000C0F380E0089581E0089581E00895ECE354
:10013000F2E0282F30E02E0F3F1F80E002C09191A7
:10014000890FE217F307D9F7089596E090933B02E1
:1001500091E090933C0280933D0282E00E949700E0
:1001600080933E020895CF93DF939091B8018091E0
:10017000AE019130D9F481500E946A0B8093400205
:10018000CBE3D2E085E080933B0284E0898381E881
:100190008A838091AE018B838091B0018C8385E04E
:1001A0000E9497008E83CE0167E01FC095E0909378
:1001B0003B0296E090933C0294E890933D021092AB
:1001C0003E0210923F029091AF01909340028093C3
:1001D00041028091B0018093420287E00E94970023
:1001E000809343028BE392E069E00E940D08DF9167
:1001F000CF9108951F93DF93CF930F92CDB7DEB7C2
:10020000182F80912802113091F581608093280287
:1002100085FF10C080E00E94230C8FEF91EEA4E0D8
:1002200081509040A040E1F700C0000080E00E94B3
:10023000D9090FC081E00E94D9098FEF91EEA4E0A7
:1002400081509040A040E1F700C0000081E00E9492
:10025000230C8091280283FF6DC08B7F809328023E
:1002600081E00E94910D80E00E941D0C63C090917E
:1002700029029E7F9093290260932602982F9C7BEF
:100280009093280285FF14C081E069830E94D909F8
:1002900081E00E94560A8FEF91EEA4E081509040D9
:1002A000A040E1F700C0000081E00E94230C6981BA
:1002B000809128028F7D809328026150623018F46B
:1002C00081E00E94350C133059F4809128028B7F15
:1002D0008093280280E00E94910D0E94290C2AC080
:1002E000123021F480E00E94910D24C080912802F8
:1002F00083FF0FC080E00E94910D8FEF91EEA4E08C
:1003000081509040A040E1F700C0000081E00E94D1
:100310001D0C8091280287FF0DC081E08093B801F9
:1003200080E290E09093AF018093AE011092B00113
:100330000E94B3000F90CF91DF911F91089580919B
:10034000280280FF11C08091AE019091AF018130F1
:10035000910509F048C08091B001882309F043C09D
:1003600061E00E94FA0008958091290282FF39C05D
:100370008091AE019091AF0181309105A1F58091FE
:10038000B001882381F581E00E94350C80E00E9455
:10039000AA0C8FEF91EEA4E081509040A040E1F7CD
:1003A00000C0000081E00E94AA0C8FEF91EEA4E053
:1003B00081509040A040E1F700C0000080E00E9422
:1003C000AA0C8FEF91EEA4E081509040A040E1F79D
:1003D00000C0000081E00E94AA0C81E08093260208
:1003E00008950E94B300089585E080933B0282E067
:1003F00080933C0282E880933D02809127028093A3
:100400003E0283E00E94970080933F028BE392E0DC
:1004100065E00E940D0808956091280261FF32C0D6
:1004200020912E0230912F024091300250913102E2
:100430008091360290913702A0913802B091390232
:10044000281739074A075B07E9F460FF05C080E019
:1004500063E00E94FA0008958091290282FF12C091
:1004600080E00E94AA0C8FEF91EEA4E081509040B2
:10047000A040E1F700C0000081E00E94AA0C83E0E8
:100480008093260208958091280282FF16C08091F1
:10049000B6018F5F8093B60190912A02981768F495
:1004A0001092B60180912D02882319F010922D022E
:1004B000089583E065E00E94FA000895DF92EF92CC
:1004C000FF920F931F93DF93CF9300D0CDB7DEB78A
:1004D00080916302882309F408C490914C029530FE
:1004E00011F4873128F01092630210924B02FDC381
:1004F00090914B02992339F4813029F080914D027B
:100500008D5F80934B0290914B02992309F4EDC3C8
:10051000E0916302E91708F4E8C380E0925007C055
:10052000A92FB0E0A45BBD4F2C91820F915099236D
:10053000B9F78093C00110924B02F0E0E55BFD4FEC
:100540009081891709F086C0109263021982EE2407
:10055000E394E0922D0280914E02843109F45DC251
:100560008531E0F5883009F49DC18930C0F48430CC
:1005700009F44AC1853050F4823009F4BEC083309A
:1005800008F0C5C0813009F0A9C3A0C0863009F4C5
:1005900074C190914F02873008F067C1EEC08D3072
:1005A00009F4B5C18E3050F48A3009F486C18A301E
:1005B00008F4A0C18B3009F091C384C1803109F4E3
:1005C000E4C1813120F48E3009F088C3D3C1823177
:1005D00009F407C2833109F081C312C28F3709F4CD
:1005E00043C28038D8F4893109F4D7C28A3150F433
:1005F000873109F450C2883108F09AC2863109F077
:100600006DC33CC28B3149F18B3108F4CBC28C31C4
:1006100009F4A4C28E3109F061C3ADC2863809F471
:10062000F9C2873850F4833809F4C1C2853809F417
:10063000CCC2803809F052C3FDC1883809F4CDC25C
:10064000883808F439C3893809F4CFC28A3809F0E8
:1006500045C3F9C21092630248C396E090933B02EF
:100660009BE090933C0280933D0200D000D000D0EC
:10067000EDB7FEB731960EE312E0ADB7BEB71296F6
:100680001C930E93119780E091E09383828384E022
:1006900091E0958384830E94DD138FE0809345026F
:1006A000E092460287E080934702EDB7FEB73696A8
:1006B0000FB6F894FEBF0FBEEDBF8CE00E9497000E
:1006C00080934802C80103976EE00DC396E09093B3
:1006D0003B0293E090933C0280933D0287E080933D
:1006E0003E0282E180933F0284E00E949700809363
:1006F00040028BE392E066E0F6C280914F02809365
:100700002C028091500280932B0282E0E7C28091FC
:100710004F0290E0A0E0B0E0BA2FA92F982F8827D1
:100720002091500230E040E050E0822B932BA42B2C
:10073000B52BBA2FA92F982F88272091510230E08E
:1007400040E050E0822B932BA42BB52BBA2FA92F7E
:10075000982F88272091520230E040E050E0822B11
:10076000932BA42BB52B80932E0290932F02A09352
:100770003002B093310283E0B1C26091280291301F
:10078000F1F58091500290E0A0E0B0E0BA2FA92FDF
:10079000982F88272091510230E040E050E0822BD2
:1007A000932BA42BB52BBA2FA92F982F88272091F4
:1007B000520230E040E050E0822B932BA42BB52B6B
:1007C000BA2FA92F982F88272091530230E040E0BC
:1007D00050E0822B932BA42BB52B8093C1019093D7
:1007E000C201A093C301B093C401809336029093D9
:1007F0003702A0933802B0933902626001C06D7F66
:100800006093280285E06AC220912E0230912F0267
:1008100040913002509131022093410230934002C6
:1008200040933F02252F3327442755272093C101AA
:100830003093C2014093C3015093C40120933E0200
:1008400095E099830BE312E026E020933B02D80168
:1008500011969C93119712968C9386E00E949700B4
:10086000F8018783C80168E03EC2913009F08AC070
:1008700082E063E00E94FA0085C080914F0260919F
:100880002802882311F4686001C0677F6093280202
:1008900081E060E00E94FA0080914F02882309F411
:1008A00024C270C096E090933B0292E090933C0289
:1008B00080933D028091260246C183E065E00E945C
:1008C000FA0013C290914F02913069F48091500266
:1008D000882319F490932A0202C080932A028091FF
:1008E0002802846003C0809128028B7F80932802B5
:1008F0008BE0F4C186E080933B0282E080933C026F
:1009000089E080933D028091280281701CC196E0AD
:10091000998390933B0290933C0280933D02809197
:1009200028028695817080933E02809136029091D4
:100930003702A0913802B09139028093420290931D
:100940004102A09340028B2F9927AA27BB278093AF
:10095000C1019093C201A093C301B093C4018093DD
:100960003F0287E00E949700809343028BE392E06E
:1009700069E0B9C180914F02813011F0811182E0AC
:100980000E94350C80914E02A9C160914F0270E027
:1009900080E090E0982F872F762F662720915002D5
:1009A00030E040E050E0622B732B842B952B982F86
:1009B000872F762F66272091510230E040E050E0EB
:1009C000622B732B842B952B6093C5017093C6010A
:1009D0008093C7019093C801409152020E94490C34
:1009E000D1CF80914D02815089838D3010F08CE001
:1009F00089838FE492E0698140E00E94EB08C2CFD6
:100A000080914F0260912802882311F0606401C038
:100A10006F7B6093280283E161C180914F026091F6
:100A20002802882311F0606201C06F7D6093280264
:100A300084E154C180EF91E066E50E94880881EF6F
:100A400091E068E70E94880880914E020E94A5000C
:100A50008BE392E064E00E940D08F89400E01EE34E
:100A6000E02FF12F099441C180914F02882309F0B2
:100A700089CF809150020E94CF0984CF80914F028C
:100A80000E94D90980914F02882309F47BCF80E02E
:100A90000E94560A77CF00914D020250098380913F
:100AA0004F02813041F080E5E82E82E0F82E10E020
:100AB0000E0D1F1D38C0E0905002009151020F5FD3
:100AC0000E19098310E016C0D12EDE0C8D2D0E9468
:100AD0007E00882371F42091AA013091AB01F901C5
:100AE000E659FE4FD0822F5F3F4F3093AB012093EA
:100AF000AA011F5F101740F319C0D701DD907D01D7
:100B00008D2D0E947E00882371F42091AA013091DE
:100B1000AB01F901E659FE4FD0822F5F3F4F309372
:100B2000AB012093AA01E016F10639F787E1D6C0A0
:100B300086E080933B0282E080933C0288E18093D0
:100B40003D028091AC0180933E0283E00E949700B9
:100B500080933F028BE392E065E0C5C090914F0225
:100B600080912902992311F0826001C08D7F8093CA
:100B700029028CE1B3C090914F0280912902992300
:100B800029F084608093290281E004C08B7F8093E8
:100B9000290280E00E94910DF5CE80914F020E94C3
:100BA0004C0AF0CE80914F020E94A80CEBCE8091AF
:100BB0004F02882311F081E001C080E00E94910D76
:100BC00080914F028093AD01DDCE8EE392E0BE01B5
:100BD0006F5F7F4F0E94130B0FC08EE392E0BE0148
:100BE0006F5F7F4F0E943A0B49C08EE392E0BE01D7
:100BF0006F5F7F4F0E94520B0BE312E086E0809301
:100C00003B026981862F8F5FF801818380914E02BC
:100C1000828344C080914F028093B1018091500241
:100C20008093B201809151028093B301809152026E
:100C30008093B401809153028093B50181EB91E0E0
:100C40000E94BE0A9FCE81EB91E0BE016F5F7F4F95
:100C50000E94710B8091B10180933E028091B2019C
:100C600080933F028091B301809340028091B40150
:100C7000809341028091B501809342020BE312E020
:100C800086E080933B026981862F8F5FD8011196A1
:100C90008C93119780914E0212968C93862F8E5FC3
:100CA0006A830E9497006A81E62FF0E0E00FF11F4F
:100CB00083836C5FC80117C090914F028091290215
:100CC000992341F0816080932902809150028093A2
:100CD000B70103C08E7F8093290287E80E94A50098
:100CE0008BE392E064E00E940D080F900F90CF918B
:100CF000DF911F910F91FF90EF90DF900895809109
:100D0000280284FF55C08091AD01882311F00E9414
:100D1000F4018091280280FF0CC0809127020E947C
:100D20007E00813009F03FC080E062E00E94FA005E
:100D300036C08091290282FF36C0809127020E942E
:100D40007E00813081F50E94350C80E00E94AA0C63
:100D50008FEF91EEA4E081509040A040E1F700C0F9
:100D6000000081E00E94AA0C8FEF91EEA4E0815078
:100D70009040A040E1F700C0000080E00E94AA0C73
:100D80008FEF91EEA4E081509040A040E1F700C0C9
:100D9000000081E00E94AA0C82E0809326028091EC
:100DA00027028093AC01809128028F7E80932802D5
:100DB00008950E94750B809134028F3408F473C03B
:100DC000109234028091B9018F5F8093B9018EEA4D
:100DD00091E00E94FE0A8093B801882349F4809133
:100DE000BC01823008F04EC08F5F8093BC0153C0BD
:100DF0001092BC014091B901413031F482E38093FB
:100E0000BD011092B0013BC02091BE013091BF01E5
:100E10008091AE019091AF012817390799F5809123
:100E2000BD014817C0F18091BA019091BB010196B4
:100E30009093BB018093BA014091290240FF16C0F4
:100E40002130310599F42091B70130E082179307E2
:100E500068F0809128028F7B8093280283E065E010
:100E60000E94FA001092BB011092BA0182E08093B6
:100E7000B90180E18093BD0181E08093B0010E94BF
:100E80009F0109C01092B9011092BB011092BA01E2
:100E900082E38093BD018091AE019091AF01909368
:100EA000BF018093BE010895809132029091330278
:100EB0002FE082349207D8F010923302109232025F
:100EC00080912E0290912F02A0913002B0913102B8
:100ED0000196A11DB11D80932E0290932F02A09325
:100EE0003002B09331020E9443020E940C02089526
:100EF000809128028172813211F00E944C0908957C
:100F00008091290281FF08C00E949E0C813021F44B
:100F100080E069E00E94FA000895ECE4F2E01192AA
:100F200082E0E336F807D9F7EAE6F1E08FEF819344
:100F300091E0EA3AF907D9F71092AB011092AA01B1
:100F40008093AC011092AD011092630210924B029B
:100F50001092AF011092AE011092B0018FE0809319
:100F6000B1018093B2018093B3018093B401809367
:100F7000B50110922E0210922F02109230021092A0
:100F800031021092360210923702109238021092FB
:100F90003902109233021092320284E080932602CA
:100FA000109234021092270210922B0210922C02FF
:100FB00010923A021092B60110922A0210922D025B
:100FC00088E08093280280912902887F80932902FB
:100FD00080E18093B70108951F920F920FB60F9290
:100FE00011248F939F93EF93FF9381E08093C90126
:100FF000809163029091C600ECE4F2E0E80FF11DED
:1010000090838F5F80936302FF91EF919F918F9107
:101010000F900FBE0F901F901895282F392FF901B0
:1010200080E008C09091C00095FFFCCF9191909313
:10103000C6008F5F8617B0F30895F89488E0809318
:10104000C40086E08093C20088E98093C100E0EC90
:10105000F0E08081837E808378940895F894E1ECB9
:10106000F0E0808187768083789408951F920F92B4
:101070000FB60F9211248F939F9381E09091CA0134
:10108000911180E08093CA01882361F1809132023E
:1010900090913302019690933302809332028091B3
:1010A00034028F5F8093340290913A029F5F909355
:1010B0003A02809135028F5F80933502913410F0AF
:1010C000109265028E3470F01092350281E08093A8
:1010D000FD018091FE019091FF0144969093FF01E4
:1010E0008093FE019F918F910F900FBE0F901F90E4
:1010F0001895F89482E08093B10017BA81E080934C
:1011000070007894089592BD81BDF89A80B50895D5
:1011100092BD81BD60BDFA9AF99AF999FECF089502
:10112000880F991F880F991F01C0000001972FEFAA
:101130008F3F9207D1F70895FF920F931F93F82ED8
:10114000449A82E090E00E94900808E011E0449800
:10115000812F8F2111F0459A01C0459882E090E0DF
:101160000E949008449A82E090E00E94900801500A
:1011700011F0110FECCF84E090E00E9490081F91D5
:101180000F91FF900895EF92FF920F931F93CF93CB
:10119000DF937C0146980BEC11E0C0E0D0E006C084
:1011A000F80181918F010E949C082196CE15DF05E0
:1011B000BCF3469ADF91CF911F910F91FF90EF9072
:1011C000089583709070886E8093CB0181E090E0E9
:1011D0000E94C30808950F931F93CF93DF93C5EE2A
:1011E000D1E0FE01119221E0E23FF207D9F7E42FAE
:1011F000F0E0DF01A60FB11DBD010CC089010B514C
:101200001E4F2E1B3F0B280F391FD9012C91D801DF
:101210002C934F5F242F30E0261737077CF3469836
:1012200080E20E949C0889910E949C08B1E0C13F25
:10123000DB07C9F7469ADF91CF911F910F9108956F
:10124000CF93DF938331B8F4E82FF0E0EE0FFF1F68
:10125000E45FFE4F80819181E82FF0E0613029F456
:10126000EF52FE4F8081892B05C0EF52FE4F9095C3
:10127000808189238083469880E60E949C08C1ED86
:10128000D1E089910E949C0881E0C53ED807C9F74A
:10129000469ADF91CF9108951F93DF93CF9300D0AB
:1012A00000D00F92CDB7DEB7809128022091F901CE
:1012B0003091FA014091FB015091FC0186FD14C070
:1012C000211531054105510531F0CE01019660E04F
:1012D00040E00E94EB081092F9011092FA0110927E
:1012E000FB011092FC0152C060912E0270912F02FE
:1012F000809130029091310226173707480759072D
:10130000A9F120E831E541E050E00E94841320E19A
:101310003EE040E050E00E948413122F2CE330E0C6
:1013200040E050E00E9484133AE0812F632F0E9436
:101330007813805D8983905D9A838AE38B83822F03
:101340000E947813805D8C83905D9D83E0910B01FA
:10135000E250E23028F4F0E0EE5CFE4F408101C044
:1013600043E0CE01019665E00E94EB0880912E02D9
:1013700090912F02A0913002B09131028093F90137
:101380009093FA01A093FB01B093FC010F900F9092
:101390000F900F900F90CF91DF911F9108958130A2
:1013A00019F481E090E002C080E090E00E94E10842
:1013B0000895813031F4299A88B1806788B9289AD4
:1013C0000895289888B18F7888B9299808951F932F
:1013D000182F81E00E94D90928988FE39CE9019792
:1013E000F1F700C00000289A8FE19EE40197F1F721
:1013F00000C0000080EE8093CB018BEB8093CC018A
:1014000082E090E00E94C30884EE8093CB0180EFDD
:101410008093CC0182E090E00E94C308113039F43F
:10142000E1EDF1E0119291E0E53EF907D9F780EAAC
:101430008093CB0180EF8093CC018093CD0180938A
:10144000CE018093CF018093D00186E090E00E948E
:10145000C308469880E80E949C088FE00E949C0880
:1014600080E00E949C0880E70E949C0880E00E9427
:101470009C0880E80E949C0881E00E949C0880E013
:101480000E949C0886E00E949C08469A80E090E0BA
:101490000E94E1081F91089594EE9093CB018093F0
:1014A000CC0182E090E00E94C30808951F93CF937F
:1014B000DF93182F0E94E7091130E1F0469880E68B
:1014C0000E949C08C1EDD1E089910E949C0881E0B6
:1014D000C53ED807C9F7469A469880E20E949C0804
:1014E000C5EED1E089910E949C0881E0C13FD807F8
:1014F000C9F7469ADF91CF911F91089581E00E942C
:10150000E709089584E080936B0281E080936E0286
:1015100080936F0210926D0294E190936C0280931D
:101520006A020895CF93DF93EC01EAE5F1E080E2EF
:10153000819391E0EA36F907D9F780E061E04881CC
:1015400021E00E946C0E81E061E0498121E00E946F
:101550006C0E82E061E04A8121E00E946C0E83E023
:1015600061E04B8121E00E946C0E84E061E04C81DF
:1015700021E00E946C0EDF91CF910895CF93DF930D
:10158000EC010E94480FCE010E94920A0E946E0F49
:101590000E94820ADF91CF9108958FE39CE9019721
:1015A000F1F700C000000E94610F0895109201023F
:1015B0001092000210920A0210920C0210920B027A
:1015C00010920E0210920D0210920F028FE0809383
:1015D000050280930602809307028093080280939D
:1015E000090285E092E00E94920A0E946E0F0E941A
:1015F000820A10927102109270020895FC0180918B
:101600000202882379F0823038F020910302309171
:101610000402318320830895209100023091010259
:10162000318320830895EF92FF920F931F93DF93EE
:10163000CF930F92CDB7DEB78B01482F592F7A0188
:1016400020E0822F29830E94860E29811816190610
:101650000CF080E0F70181937F012F5F253089F73F
:10166000F80120830F90CF91DF911F910F91FF9090
:10167000EF900895CF93DF93FC01A2E7B2E0ED0174
:1016800011968C911197808312968881818332966E
:1016900082E0AC37B80799F78AE0FB018083DF91DD
:1016A000CF910895CF93DF93FC01A2E9B2E0ED0161
:1016B00011968C911197808312968881818332963E
:1016C00082E0AC39B80799F78AE0FB018083DF91AB
:1016D000CF910895853018F40E94860E089580E019
:1016E000089585E0FB0180830895CF93DF93809177
:1016F000FD01882309F451C01092FD0110920102EE
:101700001092000210920202109204021092030240
:101710001092C9018091FE019091FF010E94CA0EB2
:1017200080FF3BC08091C9018823B9F5B091B20216
:101730002091030230910402A09102024091000224
:101740005091010280E090E061E070E0FC01E77000
:10175000F070EB0102C0CC0FDD1FEA95E2F7FE014D
:10176000EB2369F0AB01082E02C0440F551F0A9409
:10177000E2F7242B352BAF5FAC014F5F5F4F019633
:101780008530910519F73093040220930302A0934A
:1017900002025093010240930002DF91CF9108951D
:1017A00001C0000001972FEF8F3F9207D1F70895F6
:1017B0000E9A0F9A08950F931F93082F18E007FFB2
:1017C00002C0169A01C016988AE090E00E94D00BE1
:1017D000179A8AE090E00E94D00B17988AE090E078
:1017E0000E94D00B115011F0000FE9CF169882E340
:1017F00090E00E94D00B1F910F910895EF92FF92FD
:101800001F93DF93CF930F92CDB7DEB7182FE12F41
:10181000F92F7F0107C0F70181917F0169830E9441
:10182000DB0B69818E2D811B8617A8F30F90CF915A
:10183000DF911F91FF90EF900895813011F4429A4B
:10184000089542980895813011F4439A0895439879
:10185000089542988FEF93EDA0E381509040A0400F
:10186000E1F700C00000429A08958093580181304A
:1018700029F0813030F0823059F407C0139A129861
:1018800002C01398129A11980895139812981198FB
:101890000895CF92DF92EF92FF920F931F93DF9301
:1018A000CF930F92CDB7DEB77B018C01CC24DD2422
:1018B000D801C7010C2C04C0B695A79597958795BC
:1018C0000A94D2F781709070009731F08C2D642FBC
:1018D00049830E94200949810894C11CD11C23E13D
:1018E000C216D10429F7D801C70123E1B695A795FF
:1018F000979587952A95D1F787709070A070B070F2
:101900000097A105B10581F0442329F48091580185
:101910000E94350C09C013981298119803FD119A72
:1019200004FD139A05FD129A0F90CF91DF911F913C
:101930000F91FF90EF90DF90CF9008958FE99FE097
:101940000197F1F700C0000081E0379980E0089529
:1019500087BD0895813011F4419A08954198089502
:1019600000E80093610000E00093610000E800934C
:10197000550000E8009355000000000085B7806125
:1019800085BF3A9A429A3B9A439A3E9A3D9A3C9A2C
:10199000209A219A81E00E94D9093F98479A83ECC6
:1019A00084BD85E085BD8FEF87BD0B9A0A9A099AA1
:1019B000139812981198239A2B98399A4198089560
:1019C0001F920F920FB60F9211242F933F938F9374
:1019D0009F93F89480916502813051F0813030F00E
:1019E000823081F0833009F088C042C081E007C0B6
:1019F00080913A028A52863108F07FC082E080935B
:101A000065027DC080913A02873000F12091690221
:101A1000283068F481E090E002C0880F991F2A9571
:101A2000E2F720916802282B209368020FC030E073
:101A30002850304081E090E002C0880F991F2A951D
:101A4000E2F720916402282B2093640280916902BE
:101A50008F5F80936902803109F04CC01092690257
:101A6000109267021092660283E08093650242C082
:101A700080913A02873000F120916902283068F4A1
:101A800081E090E002C0880F991F2A95E2F720912B
:101A90006702282B209367020FC030E028503040A7
:101AA00081E090E002C0880F991F2A95E2F720910B
:101AB0006602282B20936602809169028F5F8093D3
:101AC00069028031B9F490912B02809168029817D5
:101AD00079F490912C0280916402981749F48091D6
:101AE00067028093270280912802806180932802F8
:101AF0001092650210923A020AC01092650210928A
:101B00003A0210926802109264021092690278946C
:101B10009F918F913F912F910F900FBE0F901F902B
:101B20001895813011F4E89A0895E8980895F8948A
:101B3000E9E6F0E080818260808380818E7F80830F
:101B4000789408953F939F9332B1982F90953923BD
:101B500032B935B1392335B9982F31B1392B31B973
:101B600034B1392B34B9962F90953BB139233BB919
:101B70003AB1962F392B3AB91098089A24B031B05F
:101B800044B051B02F93242F2095422252222F91FE
:101B900000000000000051B89F913F9108953F93CD
:101BA0009F9344B889B900000000000031B80000DC
:101BB0000000000051B824B889B99F913F91089561
:101BC000109A089510980000000000000895A0E009
:101BD000B0E0EDEEFDE00C94B113182FD62E0FB748
:101BE0000078F894809164008E7F80936400E12FE8
:101BF000E695E695E695F0E0EE0FFF1FDF01AC5AA3
:101C0000BE4F8C9180937C008091640081608093B2
:101C10006400EB5AFE4F80911803609119034081D4
:101C20000E94A20DC12FD0E0FE01E65AFE4FF080C7
:101C300010E0EE24E39415C0F8948D2D0E94CF0D92
:101C40008FB7802B8FBF809159018F5F809359018F
:101C5000823030F0823021F0833011F0E09259016F
:101C60001F5F1F1548F3F8940E94E00D1092850045
:101C700010928400B59A00B605FE0EC08FB7802B77
:101C80008FBFB59BFECF8091860090918700CC0FCF
:101C9000DD1FCE58DD4F06C0CC0FDD1FCE58DD4F07
:101CA00081E090E0998388830E94E20D8FB7082B32
:101CB0000FBFCDB7DEB7E7E00C94CD13FC0181E890
:101CC00090E09183808388E490E09383828380E036
:101CD00094E09583848308959091B702A92FB0E092
:101CE000FD01EE0FFF1FEA0FFB1FEE0FFF1FE85471
:101CF000FD4F4383677085832370660F660F660F01
:101D0000262B24839F5F9093B70208951F93CF9350
:101D1000DF93482F282F30E0F901EE0FFF1FE20F6D
:101D2000F31FEE0FFF1FE854FD4F5581838190E0B4
:101D300000906A0202C0959587950A94E2F7182FE1
:101D4000843008F414E08091B702481718F020E0BE
:101D500030E01BC0E901CC0FDD1FC20FD31FCC0F39
:101D6000DD1FC854DD4F8C818B7F8C83852F0E94B3
:101D7000B00F9C01812F90E0909581959F4F821725
:101D800093071CF08C8184608C83C901DF91CF9113
:101D90001F910895FF920F931F93CF93DF9310929B
:101DA000B5021092B4022091120230911302909366
:101DB0001302809312024091140250911502421BAB
:101DC000530B480F591FFF2403C0F394485C504045
:101DD000483C5105D0F7509315024093140280916E
:101DE000B602882341F08F1518F41092B60203C092
:101DF0008F198093B6020E94E612E0917002F09172
:101E00007102309709F0099510E000E006C0812FBB
:101E10006F2D0E94BE0F082B1F5F6091B70216172F
:101E2000B0F3002349F08091B4029091B502916023
:101E30009093B5028093B4021092B2021092B30252
:101E4000A8EBB2E030E041E050E017C08C9188711F
:101E500091F0E32FE695E695E695F0E0EE54FD4F20
:101E6000832F8770EA0102C0CC0FDD1F8A95E2F74D
:101E700020812C2B20833F5F1696361738F38091F4
:101E8000B4029091B502CDB7DEB7E5E00C94CF1364
:101E90001092B70284E080936B0294E190936E02FB
:101EA00085E080936F0210926D0290936C0281E046
:101EB00080936A020E949C1210927102109270022A
:101EC00008951F9310E004C0812F0E94810F1F5FAF
:101ED0008091B7021817C0F31F9108951F9310E067
:101EE00004C0812F0E94810F1F5F8091B7021817D5
:101EF000C0F310921302109212020E942E131F912F
:101F00000895282F30E0D901AA0FBB1FA20FB31FDD
:101F1000AA0FBB1FA854BD4F1596EC911597809141
:101F2000B4029091B50282609093B5028093B4029E
:101F30008C91803239F012961C92F0E0EA5EFD4FEF
:101F400080E88083F901EE0FFF1FE20FF31FEE0F11
:101F5000FF1FE854FD4F81E080838FE08183089567
:101F6000E82FF0E0EE0FFF1FEE58FD4F20A131A14A
:101F700080819181281B390BC9010895A0E0B0E050
:101F8000E4ECFFE00C94AA13782EF62E0E94860E45
:101F90005C01072D10E0F801EE0FFF1FE00FF11FAD
:101FA000EE0FFF1FE854FD4F54814381242F30E092
:101FB000852F837090E0019602C0359527958A950C
:101FC000E2F7822F223008F482E0242F30E0B901BA
:101FD000681B7109D801AA0FBB1FA00FB11FAA0F60
:101FE000BB1FA854BD4F8C91843009F408C18530C3
:101FF00030F4813071F0823009F097C274C08031C2
:1020000009F4AAC1803209F463C2883009F08DC294
:1020100010C22091B4023091B502C9019260909330
:10202000B5028093B40215968C91159711966C9118
:1020300090E06A3040F0FC01EE0FFF1FEE58FD4FBC
:102040008081918112C0FC01EE0FFF1FEE58FD4F01
:1020500080A191A1408151814817590710F401973F
:1020600004C08417950748F4019691A380A32860C3
:1020700032603093B5022093B402862F8150D8018C
:10208000AA0FBB1FA00FB11FAA0FBB1FA854BD4FA3
:1020900011968C931197882309F51596EC91159755
:1020A0008091B4029091B50282609093B5028093C2
:1020B000B4028C91803239F012961C92F0E0EA5E04
:1020C000FD4F80E88083F801EE0FFF1FE00FF11F46
:1020D000EE0FFF1FE854FD4F82E0808380916C0279
:1020E0008093B60220C252FF0AC080E28C93119600
:1020F0001C928091B4029091B502906119C0C50103
:10210000B7FE02C080E090E082179307B0F0F801BC
:10211000EE0FFF1FE00FF11FEE0FFF1FE854FD4F02
:1021200084E0808312828091B4029091B502946021
:102130009093B5028093B402F6C1FF2009F4F5C173
:102140008091B602882309F0F0C1F801EE0FFF1F5D
:10215000E00FF11FEE0FFF1FE854FD4F858190E067
:10216000DC01AA0FBB1FAE58BD4F90962D913C913C
:1021700091974D915C9111972417350788F4FC01D4
:10218000EA5EFD4F90819F0D908380916F02805891
:10219000981708F4CAC180E880832F5F3F4F14C0AE
:1021A000FC01EA5EFD4F42175307E0F480818F196E
:1021B000808340E890916E02542F591B581708F401
:1021C000B4C140832150304091963C932E93909718
:1021D0008091B4029091B50288609093B50280938B
:1021E000B402A3C12081213810F021502083FC01CA
:1021F000EA5EFD4F808187FD98C18F5FABC0C5014E
:10220000B7FE02C080E090E0F801EE0FFF1F8217DA
:10221000930708F488C080916C028093B602E00FA7
:10222000F11FEE0FFF1FE854FD4F9F012E5F3F4F40
:1022300082818F5F8283848190E08873907073E0E5
:10224000969587957A95E1F7682E882309F43FC023
:10225000DD24CC247F0183E090E0E80EF91E4901E3
:1022600030C0D71469F18D2D90E0EC01CC0FDD1F4B
:10227000C80FD91FCC0FDD1FC854DD4F8C8190E0F3
:102280008873907043E0969587954A95E1F76816B4
:10229000B9F48D2D0E94860E2B81821B9109F701C6
:1022A0002081A501421B5109481759072CF088814C
:1022B000803111F0883021F4F4011082CC24C394D1
:1022C000D3948091B702D81660F2CC2079F4809133
:1022D0006B02882359F08091B4029091B502986006
:1022E0009093B5028093B40221E001C020E0F80190
:1022F000EE0FFF1FE00FF11FEE0FFF1FE854FD4F21
:10230000928180916B02981708F410C18091B402F9
:102310009091B50283609093B5028093B40280E1FE
:102320008083118203C1E00FF11FEE0FFF1FE854FD
:10233000FD4FA5818091B4029091B5028260909387
:10234000B5028093B4021282B0E0AA5EBD4F80E86D
:102350008C9382E08083E9C0C501B7FE02C080E0B3
:1023600090E0F801EE0FFF1F4091B4025091B502CA
:102370008617970770F4E00FF11FEE0FFF1FE85468
:10238000FD4F88E0808354605093B5024093B402BF
:102390004AC09A0121603093B5022093B402E00F45
:1023A000F11FEE0FFF1FE854FD4F928180916B02E9
:1023B000981710F49F5F928390916D02992389F092
:1023C000D801AA0FBB1FA00FB11FAA0FBB1FA85493
:1023D000BD4F11968C911197891728F48F0D119686
:1023E0008C9320E021C01596EC9115978C9180324A
:1023F00039F012961C92F0E0EA5EFD4F80E880838F
:10240000F801EE0FFF1FE00FF11FEE0FFF1FE85462
:10241000FD4F81E080838FE08183226032603093C2
:10242000B5022093B40221E080916C028093B60241
:102430007DC080916C028093B60212968C911297A7
:10244000882389F1C501B7FE02C080E090E0409189
:10245000B4025091B5026817790790F4F801EE0FB5
:10246000FF1FE00FF11FEE0FFF1FE854FD4F80E14B
:10247000808341605093B5024093B40220E006C0CF
:1024800054605093B5024093B40221E0F801EE0F7E
:10249000FF1FE00FF11FEE0FFF1FE854FD4F828179
:1024A0008150828343C01596EC9115978091B402B8
:1024B0009091B50282609093B5028093B402129617
:1024C0001C921297F0E0EA5EFD4F80E8808315C011
:1024D00011969C9111979F5F11969C93119714965A
:1024E0008C91149782FD0CC08091B4029091B5023A
:1024F00082609093B5028093B40282E08C9315C001
:102500004091B4025091B502933040F081E08C9339
:102510008FE011968C934260506101C054605093DB
:10252000B5024093B40221E001C020E0822FCDB774
:10253000DEB7EEE00C94C613EAE5F1E080E48193A7
:1025400091E0EA36F907D9F70895A82FE82FE69524
:10255000E695E695F0E0EE0FFF1FEC5AFE4F81E0A6
:1025600090E0008002C0880F991F0A94E2F7209142
:102570001803282B20931803A770B0E0AA0FBB1FE5
:10258000AA0FBB1FAC5CBE4F1396EC911397F0E003
:10259000E85EFC4F808112969C91892B8083089580
:1025A0001F931FB7E82FE770F0E0EE0FFF1FEE0F4D
:1025B000FF1FEC5CFE4F208131816281F90109959A
:1025C0008FB71078182B1FBF1F910895A0E0B0E0BF
:1025D000ECEEF2E10C94AF13B0907B00C0B6D0905B
:1025E0008000E0908100F6B2C0918400D091850017
:1025F0000091640080E480937B0084E080BF1092AF
:10260000800081E880938100F894789410E00FC0F6
:10261000812F90E0FC01EE0FFF1FE80FF91FEE0F76
:10262000FF1FE854FD4F85810E94D0121F5F8091EB
:10263000B702181768F3B0927B00C0BED09280003A
:10264000E0928100F6BAD0938500C0938400009395
:102650006400CDB7DEB7E9E00C94CB13CF93DF93E2
:1026600081E080935901109218031092190310927F
:102670001A0310921B039091B702CDEBD2E086E0D3
:10268000989FA00111244C0F5D1F61E070E02AC0EB
:10269000A881EA2FE695E695E695F0E0EE0FFF1F9C
:1026A000EC5AFE4F9B01008002C0220F331F0A9498
:1026B000E2F780911803822B80931803A770B0E093
:1026C000AA0FBB1FAA0FBB1FAC5CBE4F1396EC91A9
:1026D0001397F0E0E85EFC4F808112969C91892B65
:1026E00080832696C417D50799F6DF91CF91089578
:1026F000991B79E004C0991F961708F0961B881F54
:102700007A95C9F780950895A1E21A2EAA1BBB1BE2
:10271000FD010DC0AA1FBB1FEE1FFF1FA217B307AD
:10272000E407F50720F0A21BB30BE40BF50B661FC3
:10273000771F881F991F1A9469F760957095809587
:1027400090959B01AC01BD01CF0108952F923F925E
:102750004F925F926F927F928F929F92AF92BF92B1
:10276000CF92DF92EF92FF920F931F93CF93DF935D
:10277000CDB7DEB7CA1BDB0B0FB6F894DEBF0FBEBA
:10278000CDBF09942A88398848885F846E847D8407
:102790008C849B84AA84B984C884DF80EE80FD8009
:1027A0000C811B81AA81B981CE0FD11D0FB6F8947F
:1027B000DEBF0FBECDBFED010895AEE0B0E0E3EEA9
:1027C000F3E10C94B4130D891E8986E08C831A837F
:1027D00009838FEF9FE79E838D839E01275E3F4F86
:1027E000CE0101966F89788DA9010E940014EF81B6
:1027F000F885E00FF11F10822E96E4E00C94D013C0
:10280000ACE0B0E0E6E0F4E10C94A6136C011B012F
:102810008A01FC0117821682838181FFD1C12E01BA
:102820000894411C511CF6019381F10193FD85919F
:1028300093FF81911F01882309F4BEC1853239F4C9
:1028400093FD859193FF81911F01853229F490E0DA
:10285000B6010E94FD15E7CFEE24FF2420E02032D0
:10286000B0F48B3269F08C3228F4803251F083322C
:1028700071F40BC08D3239F0803349F421602CC0E3
:102880002260246029C0286027C0206125C027FD60
:102890002CC0382F30533A3098F426FF08C08E2DC4
:1028A000880FE82EEE0CEE0CE80EE30E15C08F2D0F
:1028B000880FF82EFF0CFF0CF80EF30E20620CC0F0
:1028C0008E3221F426FD78C1206406C08C3611F4C6
:1028D000206802C0883649F4F10193FD859193FF89
:1028E00081911F01882309F0BACF982F9554933016
:1028F00018F09052933028F40C5F1F4FFFE3F983D8
:102900000DC0833631F0833771F0833509F060C034
:1029100022C0F801808189830E5F1F4F420171E060
:10292000A72EB12C16C062E0662E712C600E711EAF
:10293000F8018080918026FF03C06E2D70E002C0F8
:102940006FEF7FEFC4012C870E94F2155C018301B9
:102950002C852F7717C052E0652E712C600E711EEA
:10296000F8018080918026FF03C06E2D70E002C0C8
:102970006FEF7FEFC4012C870E94E7155C012C8567
:102980002068830123FD20C008C080E290E0B601EA
:102990002C870E94FD15FA942C858F2D90E0A816A7
:1029A000B90698F311C0F40127FD859127FF8191A5
:1029B0004F0190E0B6012C870E94FD152C85F11087
:1029C000FA940894A108B108A114B10461F7F1C008
:1029D000843611F0893649F527FF08C0F801608177
:1029E0007181828193810C5F1F4F09C0F801608162
:1029F0007181882777FD8095982F0E5F1F4F4FE6D6
:102A0000B42EB22297FF09C090958095709561957C
:102A10007F4F8F4F9F4FF0E8BF2AA2012AE030E09E
:102A20000E942916782E741845C0853731F43FEE80
:102A3000B32EB2222AE030E025C099EFB92EB2229F
:102A40008F36C1F0803720F4883509F0B5C00DC04D
:102A5000803721F0883709F0AFC002C020E1B22AE8
:102A6000B4FE0BC084E0B82A08C0B4FE09C0E6E09A
:102A7000BE2A06C028E030E005C020E130E002C0F8
:102A800020E132E0B7FE08C0F801608171818281E7
:102A900093810C5F1F4F07C0F8016081718180E056
:102AA00090E00E5F1F4FA2010E942916782E741825
:102AB000FFE7BF22B6FE0BC02EEFB2227E1438F421
:102AC000B4FE07C0B2FC05C08FEEB82202C0A72C2E
:102AD00001C0AE2C8B2D90E0B4FE0DC0FE01E70DC1
:102AE000F11D2081203319F4E9EEBE2209C0A39420
:102AF000B2FE06C004C086789070009709F0A394D7
:102B00008B2C9924B3FC14C0B0FE0FC0AF1428F472
:102B1000E72CEF0CEA18AF2C08C0E72C06C080E2C7
:102B200090E0B6010E94FD15A394AF14C0F304C059
:102B3000AF1410F4FA1801C0FF2484FE0FC080E324
:102B400090E0B6010E94FD1582FE1FC081FE03C009
:102B500088E590E010C088E790E00DC0C401867859
:102B60009070009791F081FC02C080E201C08BE27E
:102B7000B7FC8DE290E0B6010E94FD1506C080E32F
:102B800090E0B6010E94FD15EA947E14C0F37A9499
:102B9000F201E70DF11D808190E0B6010E94FD1564
:102BA0007720A9F706C080E290E0B6010E94FD15EB
:102BB000FA94FF20C1F737CEF6012681378102C093
:102BC0002FEF3FEFC9012C96E2E10C94C213FC01F8
:102BD0000590615070400110D8F7809590958E0F48
:102BE0009F1F0895FC016150704001900110D8F7BB
:102BF000809590958E0F9F1F08950F931F93CF93ED
:102C0000DF938C01EB018B8181FF1BC082FF0DC024
:102C10002E813F818C819D812817390764F4E881DA
:102C2000F9810193F983E88306C0E885F985802F4F
:102C30000995009731F48E819F8101969F838E8341
:102C400002C00FEF1FEFC801DF91CF911F910F91CD
:102C50000895FA01AA27283051F1203181F1E89432
:102C60006F936E7F6E5F7F4F8F4F9F4FAF4FB1E07F
:102C70003ED0B4E03CD0670F781F891F9A1FA11D7A
:102C8000680F791F8A1F911DA11D6A0F711D811D7B
:102C9000911DA11D20D009F468943F912AE0269F40
:102CA00011243019305D3193DEF6CF010895462F9F
:102CB0004770405D4193B3E00FD0C9F7F6CF462F80
:102CC0004F70405D4A3318F0495D31FD40524193E9
:102CD00002D0A9F7EACFB4E0A695979587957795A6
:102CE0006795BA95C9F700976105710508959B012D
:102CF000AC010A2E06945795479537952795BA95B6
:102D0000C9F7620F731F841F951FA01D0895F894C3
:022D1000FFCFF3
:102D1200257320004B485446414100011001100226
:102D220010041008110111021104110812011202FB
:102D3200120412081301130213040B010B020B04F9
:102D42000B080007E70D0801E70D1001E70D200150
:102D5200E70D4001E70D80010000000000000000C7
:102D620000000000041000000201404040404040CA
:0A2D720040404040404040404040D7
:043CFC00CDAB341206
:00000001FF
